{
  "_format": "hh-sol-artifact-1",
  "contractName": "StakingContract",
  "sourceName": "contracts/Staking.sol",
  "abi": [
    {
      "inputs": [
        {
          "internalType": "address",
          "name": "stakingToken",
          "type": "address"
        },
        {
          "internalType": "address",
          "name": "rewardToken",
          "type": "address"
        }
      ],
      "stateMutability": "nonpayable",
      "type": "constructor"
    },
    {
      "anonymous": false,
      "inputs": [
        {
          "indexed": true,
          "internalType": "address",
          "name": "user",
          "type": "address"
        },
        {
          "indexed": true,
          "internalType": "uint256",
          "name": "amount",
          "type": "uint256"
        }
      ],
      "name": "RewardsClaimed",
      "type": "event"
    },
    {
      "anonymous": false,
      "inputs": [
        {
          "indexed": true,
          "internalType": "address",
          "name": "user",
          "type": "address"
        },
        {
          "indexed": true,
          "internalType": "uint256",
          "name": "amount",
          "type": "uint256"
        }
      ],
      "name": "Staked",
      "type": "event"
    },
    {
      "anonymous": false,
      "inputs": [
        {
          "indexed": true,
          "internalType": "address",
          "name": "user",
          "type": "address"
        },
        {
          "indexed": true,
          "internalType": "uint256",
          "name": "amount",
          "type": "uint256"
        }
      ],
      "name": "Withdrawn",
      "type": "event"
    },
    {
      "inputs": [],
      "name": "REWARD_RATE",
      "outputs": [
        {
          "internalType": "uint256",
          "name": "",
          "type": "uint256"
        }
      ],
      "stateMutability": "view",
      "type": "function"
    },
    {
      "inputs": [
        {
          "internalType": "address",
          "name": "account",
          "type": "address"
        }
      ],
      "name": "earned",
      "outputs": [
        {
          "internalType": "uint256",
          "name": "",
          "type": "uint256"
        }
      ],
      "stateMutability": "view",
      "type": "function"
    },
    {
      "inputs": [],
      "name": "getReward",
      "outputs": [],
      "stateMutability": "nonpayable",
      "type": "function"
    },
    {
      "inputs": [],
      "name": "lastUpdateTime",
      "outputs": [
        {
          "internalType": "uint256",
          "name": "",
          "type": "uint256"
        }
      ],
      "stateMutability": "view",
      "type": "function"
    },
    {
      "inputs": [],
      "name": "rewardPerToken",
      "outputs": [
        {
          "internalType": "uint256",
          "name": "",
          "type": "uint256"
        }
      ],
      "stateMutability": "view",
      "type": "function"
    },
    {
      "inputs": [],
      "name": "rewardPerTokenStored",
      "outputs": [
        {
          "internalType": "uint256",
          "name": "",
          "type": "uint256"
        }
      ],
      "stateMutability": "view",
      "type": "function"
    },
    {
      "inputs": [
        {
          "internalType": "address",
          "name": "",
          "type": "address"
        }
      ],
      "name": "rewards",
      "outputs": [
        {
          "internalType": "uint256",
          "name": "",
          "type": "uint256"
        }
      ],
      "stateMutability": "view",
      "type": "function"
    },
    {
      "inputs": [],
      "name": "s_rewardToken",
      "outputs": [
        {
          "internalType": "contract IERC20",
          "name": "",
          "type": "address"
        }
      ],
      "stateMutability": "view",
      "type": "function"
    },
    {
      "inputs": [],
      "name": "s_stakingToken",
      "outputs": [
        {
          "internalType": "contract IERC20",
          "name": "",
          "type": "address"
        }
      ],
      "stateMutability": "view",
      "type": "function"
    },
    {
      "inputs": [
        {
          "internalType": "uint256",
          "name": "amount",
          "type": "uint256"
        }
      ],
      "name": "stake",
      "outputs": [],
      "stateMutability": "nonpayable",
      "type": "function"
    },
    {
      "inputs": [
        {
          "internalType": "address",
          "name": "",
          "type": "address"
        }
      ],
      "name": "stakedBalance",
      "outputs": [
        {
          "internalType": "uint256",
          "name": "",
          "type": "uint256"
        }
      ],
      "stateMutability": "view",
      "type": "function"
    },
    {
      "inputs": [
        {
          "internalType": "address",
          "name": "",
          "type": "address"
        }
      ],
      "name": "userRewardPerTokenPaid",
      "outputs": [
        {
          "internalType": "uint256",
          "name": "",
          "type": "uint256"
        }
      ],
      "stateMutability": "view",
      "type": "function"
    },
    {
      "inputs": [
        {
          "internalType": "uint256",
          "name": "amount",
          "type": "uint256"
        }
      ],
      "name": "withdrawStakedTokens",
      "outputs": [],
      "stateMutability": "nonpayable",
      "type": "function"
    }
  ],
  "bytecode": "0x60806040523480156200001157600080fd5b506040516200161238038062001612833981810160405281019062000037919062000133565b600160008190555081600160006101000a81548173ffffffffffffffffffffffffffffffffffffffff021916908373ffffffffffffffffffffffffffffffffffffffff16021790555080600260006101000a81548173ffffffffffffffffffffffffffffffffffffffff021916908373ffffffffffffffffffffffffffffffffffffffff16021790555050506200017a565b600080fd5b600073ffffffffffffffffffffffffffffffffffffffff82169050919050565b6000620000fb82620000ce565b9050919050565b6200010d81620000ee565b81146200011957600080fd5b50565b6000815190506200012d8162000102565b92915050565b600080604083850312156200014d576200014c620000c9565b5b60006200015d858286016200011c565b925050602062000170858286016200011c565b9150509250929050565b611488806200018a6000396000f3fe608060405234801561001057600080fd5b50600436106100ce5760003560e01c80636374cc001161008c578063adca9b7211610066578063adca9b7214610211578063c8f33c911461022f578063cd3daf9d1461024d578063df136d651461026b576100ce565b80636374cc00146101a75780638b876347146101c5578063a694fc3a146101f5576100ce565b80628cc262146100d35780630700037d146101035780630a57336a146101335780633d18b9121461014f5780635997bb37146101595780636021726714610177575b600080fd5b6100ed60048036038101906100e89190610ee4565b610289565b6040516100fa9190610f2a565b60405180910390f35b61011d60048036038101906101189190610ee4565b6103a7565b60405161012a9190610f2a565b60405180910390f35b61014d60048036038101906101489190610f71565b6103bf565b005b610157610719565b005b6101616109ca565b60405161016e9190610f2a565b60405180910390f35b610191600480360381019061018c9190610ee4565b6109d6565b60405161019e9190610f2a565b60405180910390f35b6101af6109ee565b6040516101bc9190610ffd565b60405180910390f35b6101df60048036038101906101da9190610ee4565b610a14565b6040516101ec9190610f2a565b60405180910390f35b61020f600480360381019061020a9190610f71565b610a2c565b005b610219610d06565b6040516102269190610ffd565b60405180910390f35b610237610d2c565b6040516102449190610f2a565b60405180910390f35b610255610d32565b6040516102629190610f2a565b60405180910390f35b610273610dca565b6040516102809190610f2a565b60405180910390f35b60006103a0600760008473ffffffffffffffffffffffffffffffffffffffff1673ffffffffffffffffffffffffffffffffffffffff16815260200190815260200160002054610392670de0b6b3a7640000610384610336600860008973ffffffffffffffffffffffffffffffffffffffff1673ffffffffffffffffffffffffffffffffffffffff16815260200190815260200160002054610328610d32565b610dd090919063ffffffff16565b600660008973ffffffffffffffffffffffffffffffffffffffff1673ffffffffffffffffffffffffffffffffffffffff16815260200190815260200160002054610de690919063ffffffff16565b610dfc90919063ffffffff16565b610e1290919063ffffffff16565b9050919050565b60076020528060005260406000206000915090505481565b6103c7610e28565b336103d0610d32565b600481905550426005819055506103e681610289565b600760008373ffffffffffffffffffffffffffffffffffffffff1673ffffffffffffffffffffffffffffffffffffffff16815260200190815260200160002081905550600454600860008373ffffffffffffffffffffffffffffffffffffffff1673ffffffffffffffffffffffffffffffffffffffff16815260200190815260200160002081905550600082116104b2576040517f08c379a00000000000000000000000000000000000000000000000000000000081526004016104a990611075565b60405180910390fd5b81600660003373ffffffffffffffffffffffffffffffffffffffff1673ffffffffffffffffffffffffffffffffffffffff168152602001908152602001600020541015610534576040517f08c379a000000000000000000000000000000000000000000000000000000000815260040161052b906110e1565b60405180910390fd5b61054982600354610dd090919063ffffffff16565b6003819055506105a182600660003373ffffffffffffffffffffffffffffffffffffffff1673ffffffffffffffffffffffffffffffffffffffff16815260200190815260200160002054610dd090919063ffffffff16565b600660003373ffffffffffffffffffffffffffffffffffffffff1673ffffffffffffffffffffffffffffffffffffffff16815260200190815260200160002081905550813373ffffffffffffffffffffffffffffffffffffffff167f7084f5476618d8e60b11ef0d7d3f06914655adb8793e28ff7f018d4c76d505d560405160405180910390a36000600160009054906101000a900473ffffffffffffffffffffffffffffffffffffffff1673ffffffffffffffffffffffffffffffffffffffff1663a9059cbb33856040518363ffffffff1660e01b8152600401610687929190611110565b6020604051808303816000875af11580156106a6573d6000803e3d6000fd5b505050506040513d601f19601f820116820180604052508101906106ca9190611171565b90508061070c576040517f08c379a0000000000000000000000000000000000000000000000000000000008152600401610703906111ea565b60405180910390fd5b5050610716610e77565b50565b610721610e28565b3361072a610d32565b6004819055504260058190555061074081610289565b600760008373ffffffffffffffffffffffffffffffffffffffff1673ffffffffffffffffffffffffffffffffffffffff16815260200190815260200160002081905550600454600860008373ffffffffffffffffffffffffffffffffffffffff1673ffffffffffffffffffffffffffffffffffffffff168152602001908152602001600020819055506000600760003373ffffffffffffffffffffffffffffffffffffffff1673ffffffffffffffffffffffffffffffffffffffff16815260200190815260200160002054905060008111610850576040517f08c379a000000000000000000000000000000000000000000000000000000000815260040161084790611256565b60405180910390fd5b6000600760003373ffffffffffffffffffffffffffffffffffffffff1673ffffffffffffffffffffffffffffffffffffffff16815260200190815260200160002081905550803373ffffffffffffffffffffffffffffffffffffffff167ffc30cddea38e2bf4d6ea7d3f9ed3b6ad7f176419f4963bd81318067a4aee73fe60405160405180910390a36000600260009054906101000a900473ffffffffffffffffffffffffffffffffffffffff1673ffffffffffffffffffffffffffffffffffffffff1663a9059cbb33846040518363ffffffff1660e01b8152600401610938929190611110565b6020604051808303816000875af1158015610957573d6000803e3d6000fd5b505050506040513d601f19601f8201168201806040525081019061097b9190611171565b9050806109bd576040517f08c379a00000000000000000000000000000000000000000000000000000000081526004016109b4906111ea565b60405180910390fd5b5050506109c8610e77565b565b670de0b6b3a764000081565b60066020528060005260406000206000915090505481565b600260009054906101000a900473ffffffffffffffffffffffffffffffffffffffff1681565b60086020528060005260406000206000915090505481565b610a34610e28565b33610a3d610d32565b60048190555042600581905550610a5381610289565b600760008373ffffffffffffffffffffffffffffffffffffffff1673ffffffffffffffffffffffffffffffffffffffff16815260200190815260200160002081905550600454600860008373ffffffffffffffffffffffffffffffffffffffff1673ffffffffffffffffffffffffffffffffffffffff1681526020019081526020016000208190555060008211610b1f576040517f08c379a0000000000000000000000000000000000000000000000000000000008152600401610b1690611075565b60405180910390fd5b610b3482600354610e1290919063ffffffff16565b600381905550610b8c82600660003373ffffffffffffffffffffffffffffffffffffffff1673ffffffffffffffffffffffffffffffffffffffff16815260200190815260200160002054610e1290919063ffffffff16565b600660003373ffffffffffffffffffffffffffffffffffffffff1673ffffffffffffffffffffffffffffffffffffffff16815260200190815260200160002081905550813373ffffffffffffffffffffffffffffffffffffffff167f9e71bc8eea02a63969f509818f2dafb9254532904319f9dbda79b67bd34a5f3d60405160405180910390a36000600160009054906101000a900473ffffffffffffffffffffffffffffffffffffffff1673ffffffffffffffffffffffffffffffffffffffff166323b872dd3330866040518463ffffffff1660e01b8152600401610c7493929190611276565b6020604051808303816000875af1158015610c93573d6000803e3d6000fd5b505050506040513d601f19601f82011682018060405250810190610cb79190611171565b905080610cf9576040517f08c379a0000000000000000000000000000000000000000000000000000000008152600401610cf0906111ea565b60405180910390fd5b5050610d03610e77565b50565b600160009054906101000a900473ffffffffffffffffffffffffffffffffffffffff1681565b60055481565b60008060035403610d47576004549050610dc7565b6000610d5e60055442610dd090919063ffffffff16565b90506000610d7d82670de0b6b3a7640000610de690919063ffffffff16565b9050610dc2610db1600354610da3670de0b6b3a764000085610de690919063ffffffff16565b610dfc90919063ffffffff16565b600454610e1290919063ffffffff16565b925050505b90565b60045481565b60008183610dde91906112dc565b905092915050565b60008183610df49190611310565b905092915050565b60008183610e0a9190611381565b905092915050565b60008183610e2091906113b2565b905092915050565b600260005403610e6d576040517f08c379a0000000000000000000000000000000000000000000000000000000008152600401610e6490611432565b60405180910390fd5b6002600081905550565b6001600081905550565b600080fd5b600073ffffffffffffffffffffffffffffffffffffffff82169050919050565b6000610eb182610e86565b9050919050565b610ec181610ea6565b8114610ecc57600080fd5b50565b600081359050610ede81610eb8565b92915050565b600060208284031215610efa57610ef9610e81565b5b6000610f0884828501610ecf565b91505092915050565b6000819050919050565b610f2481610f11565b82525050565b6000602082019050610f3f6000830184610f1b565b92915050565b610f4e81610f11565b8114610f5957600080fd5b50565b600081359050610f6b81610f45565b92915050565b600060208284031215610f8757610f86610e81565b5b6000610f9584828501610f5c565b91505092915050565b6000819050919050565b6000610fc3610fbe610fb984610e86565b610f9e565b610e86565b9050919050565b6000610fd582610fa8565b9050919050565b6000610fe782610fca565b9050919050565b610ff781610fdc565b82525050565b60006020820190506110126000830184610fee565b92915050565b600082825260208201905092915050565b7f416d6f756e74206d7573742062652067726561746572207468616e207a65726f600082015250565b600061105f602083611018565b915061106a82611029565b602082019050919050565b6000602082019050818103600083015261108e81611052565b9050919050565b7f5374616b656420616d6f756e74206e6f7420656e6f7567680000000000000000600082015250565b60006110cb601883611018565b91506110d682611095565b602082019050919050565b600060208201905081810360008301526110fa816110be565b9050919050565b61110a81610ea6565b82525050565b60006040820190506111256000830185611101565b6111326020830184610f1b565b9392505050565b60008115159050919050565b61114e81611139565b811461115957600080fd5b50565b60008151905061116b81611145565b92915050565b60006020828403121561118757611186610e81565b5b60006111958482850161115c565b91505092915050565b7f5472616e73666572204661696c65640000000000000000000000000000000000600082015250565b60006111d4600f83611018565b91506111df8261119e565b602082019050919050565b60006020820190508181036000830152611203816111c7565b9050919050565b7f4e6f207265776172647320746f20636c61696d00000000000000000000000000600082015250565b6000611240601383611018565b915061124b8261120a565b602082019050919050565b6000602082019050818103600083015261126f81611233565b9050919050565b600060608201905061128b6000830186611101565b6112986020830185611101565b6112a56040830184610f1b565b949350505050565b7f4e487b7100000000000000000000000000000000000000000000000000000000600052601160045260246000fd5b60006112e782610f11565b91506112f283610f11565b925082820390508181111561130a576113096112ad565b5b92915050565b600061131b82610f11565b915061132683610f11565b925082820261133481610f11565b9150828204841483151761134b5761134a6112ad565b5b5092915050565b7f4e487b7100000000000000000000000000000000000000000000000000000000600052601260045260246000fd5b600061138c82610f11565b915061139783610f11565b9250826113a7576113a6611352565b5b828204905092915050565b60006113bd82610f11565b91506113c883610f11565b92508282019050808211156113e0576113df6112ad565b5b92915050565b7f5265656e7472616e637947756172643a207265656e7472616e742063616c6c00600082015250565b600061141c601f83611018565b9150611427826113e6565b602082019050919050565b6000602082019050818103600083015261144b8161140f565b905091905056fea26469706673582212209b23397319fc6692c9bab66456151f092757df2a4447f848746275ae2b8e9e6164736f6c63430008140033",
  "linkReferences": {},
  "deployedLinkReferences": {}
}